{
  "contractName": "OffChainDataStorage",
  "abi": [
    {
      "anonymous": false,
      "inputs": [
        {
          "indexed": false,
          "internalType": "address",
          "name": "entityAddress",
          "type": "address"
        },
        {
          "indexed": false,
          "internalType": "bool",
          "name": "isEntity",
          "type": "bool"
        }
      ],
      "name": "UserCreated",
      "type": "event"
    },
    {
      "anonymous": false,
      "inputs": [
        {
          "indexed": false,
          "internalType": "address",
          "name": "entityAddress",
          "type": "address"
        },
        {
          "indexed": false,
          "internalType": "bool",
          "name": "isEntity",
          "type": "bool"
        }
      ],
      "name": "UserDeleted",
      "type": "event"
    },
    {
      "constant": true,
      "inputs": [
        {
          "internalType": "uint256",
          "name": "",
          "type": "uint256"
        }
      ],
      "name": "entityList",
      "outputs": [
        {
          "internalType": "address",
          "name": "",
          "type": "address"
        }
      ],
      "payable": false,
      "stateMutability": "view",
      "type": "function"
    },
    {
      "constant": true,
      "inputs": [
        {
          "internalType": "address",
          "name": "",
          "type": "address"
        }
      ],
      "name": "offchaindataStructs",
      "outputs": [
        {
          "internalType": "bool",
          "name": "isEntity",
          "type": "bool"
        }
      ],
      "payable": false,
      "stateMutability": "view",
      "type": "function"
    },
    {
      "constant": true,
      "inputs": [
        {
          "internalType": "address",
          "name": "entityAddress",
          "type": "address"
        }
      ],
      "name": "isEntity",
      "outputs": [
        {
          "internalType": "bool",
          "name": "isExist",
          "type": "bool"
        }
      ],
      "payable": false,
      "stateMutability": "view",
      "type": "function"
    },
    {
      "constant": true,
      "inputs": [],
      "name": "getEntityCount",
      "outputs": [
        {
          "internalType": "uint256",
          "name": "entityCount",
          "type": "uint256"
        }
      ],
      "payable": false,
      "stateMutability": "view",
      "type": "function"
    },
    {
      "constant": false,
      "inputs": [
        {
          "internalType": "address",
          "name": "entityAddress",
          "type": "address"
        }
      ],
      "name": "createUser",
      "outputs": [],
      "payable": false,
      "stateMutability": "nonpayable",
      "type": "function"
    },
    {
      "constant": false,
      "inputs": [
        {
          "internalType": "address",
          "name": "entityAddress",
          "type": "address"
        }
      ],
      "name": "deleteUser",
      "outputs": [],
      "payable": false,
      "stateMutability": "nonpayable",
      "type": "function"
    },
    {
      "constant": true,
      "inputs": [],
      "name": "getUsers",
      "outputs": [
        {
          "internalType": "address[]",
          "name": "",
          "type": "address[]"
        }
      ],
      "payable": false,
      "stateMutability": "view",
      "type": "function"
    },
    {
      "constant": true,
      "inputs": [
        {
          "internalType": "address",
          "name": "_address",
          "type": "address"
        }
      ],
      "name": "getUserDetails",
      "outputs": [
        {
          "internalType": "address",
          "name": "",
          "type": "address"
        },
        {
          "internalType": "bool",
          "name": "",
          "type": "bool"
        }
      ],
      "payable": false,
      "stateMutability": "view",
      "type": "function"
    }
  ],
  "bytecode": "0x608060405234801561001057600080fd5b50610490806100206000396000f3fe608060405234801561001057600080fd5b50600436106100875760003560e01c80635d1b45b51161005b5780635d1b45b51461017f578063cc3d967b14610199578063cdd87618146101e2578063e64256281461020857610087565b8062ce8e3e1461008c57806314887c58146100e4578063404cbffb1461011e5780635c60f22614610157575b600080fd5b61009461022e565b60408051602080825283518183015283519192839290830191858101910280838360005b838110156100d05781810151838201526020016100b8565b505050509050019250505060405180910390f35b61010a600480360360208110156100fa57600080fd5b50356001600160a01b0316610290565b604080519115158252519081900360200190f35b61013b6004803603602081101561013457600080fd5b50356102ae565b604080516001600160a01b039092168252519081900360200190f35b61017d6004803603602081101561016d57600080fd5b50356001600160a01b03166102d5565b005b610187610359565b60408051918252519081900360200190f35b6101bf600480360360208110156101af57600080fd5b50356001600160a01b031661035f565b604080516001600160a01b03909316835290151560208301528051918290030190f35b61017d600480360360208110156101f857600080fd5b50356001600160a01b0316610382565b61010a6004803603602081101561021e57600080fd5b50356001600160a01b0316610434565b6060600180548060200260200160405190810160405280929190818152602001828054801561028657602002820191906000526020600020905b81546001600160a01b03168152600190910190602001808311610268575b5050505050905090565b6001600160a01b031660009081526020819052604090205460ff1690565b600181815481106102bb57fe5b6000918252602090912001546001600160a01b0316905081565b6102dd610449565b506001600160a01b03811660008181526020818152604080832081518084018352815460ff81161582528686529484528051151560ff199095168517909155815194855291840192909252815190927f84575b21619a9ae6ef391477f1017be60323335aabaf95dc8daaca2b97ff6f2992908290030190a15050565b60015490565b6001600160a01b038116600090815260208190526040902054819060ff16915091565b61038b81610290565b1561039557600080fd5b6001600160a01b03811660008181526020818152604091829020805460ff19166001908117825580548082019091557fb10e2d527612073b26eecdfd717e6a320cf44b4afac2b0732d9fcbe2b7fa0cf60180546001600160a01b0319168517905554825193845260ff1615159083015280517fa394211f4abc8b062e2f6a535011d7a7145dfb8e2aeef659ace63202ecaaa6da9281900390910190a150565b60006020819052908152604090205460ff1681565b6040805160208101909152600081529056fea265627a7a72315820e0112d9d632565cf167ee4f1985381f563d7e1dbe33e0fe28af6204b1b7468c664736f6c63430005100032",
  "source": "pragma solidity ^0.5.0;\r\n\r\ncontract OffChainDataStorage\r\n{\r\n\tstruct OffChainDataStruct\r\n\t{\r\n\t\tbool isEntity;\r\n\t}\r\n\r\n\tmapping(address => OffChainDataStruct) public offchaindataStructs;\r\n\taddress[] public entityList;\r\n\r\n\tevent UserCreated\r\n\t(\r\n\t   address entityAddress,\r\n\t   bool isEntity\r\n\t);\r\n\r\n\tevent UserDeleted\r\n\t(\r\n\t   address entityAddress,\r\n\t   bool isEntity\r\n\t);\r\n\r\n\tfunction isEntity(address entityAddress) public view returns(bool isExist)\r\n\t{\r\n\t\treturn offchaindataStructs[entityAddress].isEntity;\r\n\t}\r\n\r\n\tfunction getEntityCount() public view returns(uint entityCount)\r\n\t{\r\n\t\treturn entityList.length;\r\n\t}\r\n\r\n\tfunction createUser(address entityAddress) public\r\n\t{\r\n\t\tif(isEntity(entityAddress))\r\n\t\t{\r\n\t\t\trevert();\r\n\t\t}\r\n\r\n\t\toffchaindataStructs[entityAddress].isEntity = true;\r\n\t\tentityList.push(entityAddress) - 1;\r\n\t\temit UserCreated(entityAddress, offchaindataStructs[entityAddress].isEntity);\r\n\r\n\t}\t\r\n\r\n\tfunction deleteUser(address entityAddress) public\r\n\t{\r\n\t\tOffChainDataStruct memory _OffChainDataStruct = offchaindataStructs[entityAddress];\r\n\t\t_OffChainDataStruct.isEntity = !_OffChainDataStruct.isEntity;\r\n\t\toffchaindataStructs[entityAddress] = _OffChainDataStruct;\r\n\t\temit UserDeleted(entityAddress,_OffChainDataStruct.isEntity);\r\n\r\n\t}\r\n\r\n\tfunction getUsers() view public returns(address []memory)\r\n\t{\r\n\t\treturn entityList;\r\n\t}\r\n\r\n\tfunction getUserDetails(address _address) view public returns(address,bool)\r\n\t{\r\n\t\treturn(_address,offchaindataStructs[_address].isEntity);\r\n\t}\r\n}",
  "sourcePath": "C:\\Users\\user\\offchain-data-storage-system\\contracts\\OffChainDataStorage.sol",
  "compiler": {
    "name": "solc",
    "version": "0.5.16+commit.9c3226ce.Emscripten.clang"
  },
  "schemaVersion": "3.4.3",
  "updatedAt": "2021-09-14T10:36:02.342Z",
  "networkType": "ethereum",
  "devdoc": {
    "methods": {}
  },
  "userdoc": {
    "methods": {}
  }
}